{
  "abi": [
    {
      "type": "function",
      "name": "getMessages",
      "inputs": [],
      "outputs": [
        {
          "name": "",
          "type": "tuple[]",
          "internalType": "struct PostWall.Message[]",
          "components": [
            {
              "name": "sender",
              "type": "address",
              "internalType": "address"
            },
            {
              "name": "text",
              "type": "string",
              "internalType": "string"
            },
            {
              "name": "timestamp",
              "type": "uint256",
              "internalType": "uint256"
            }
          ]
        }
      ],
      "stateMutability": "view"
    },
    {
      "type": "function",
      "name": "messages",
      "inputs": [
        {
          "name": "",
          "type": "uint256",
          "internalType": "uint256"
        }
      ],
      "outputs": [
        {
          "name": "sender",
          "type": "address",
          "internalType": "address"
        },
        {
          "name": "text",
          "type": "string",
          "internalType": "string"
        },
        {
          "name": "timestamp",
          "type": "uint256",
          "internalType": "uint256"
        }
      ],
      "stateMutability": "view"
    },
    {
      "type": "function",
      "name": "sendMessage",
      "inputs": [
        {
          "name": "_text",
          "type": "string",
          "internalType": "string"
        }
      ],
      "outputs": [],
      "stateMutability": "nonpayable"
    },
    {
      "type": "event",
      "name": "NewMessage",
      "inputs": [
        {
          "name": "sender",
          "type": "address",
          "indexed": true,
          "internalType": "address"
        },
        {
          "name": "text",
          "type": "string",
          "indexed": false,
          "internalType": "string"
        },
        {
          "name": "timestamp",
          "type": "uint256",
          "indexed": false,
          "internalType": "uint256"
        }
      ],
      "anonymous": false
    }
  ],
  "bytecode": {
    "object": "0x608060405234801561001057600080fd5b50610741806100206000396000f3fe608060405234801561001057600080fd5b50600436106100415760003560e01c80630d80fefd14610046578063469c8110146100715780635ff6cbf314610086575b600080fd5b6100596100543660046103ba565b61009b565b60405161006893929190610419565b60405180910390f35b61008461007f366004610463565b610163565b005b61008e6102a9565b6040516100689190610514565b600081815481106100ab57600080fd5b6000918252602090912060039091020180546001820180546001600160a01b039092169350906100da906105a0565b80601f0160208091040260200160405190810160405280929190818152602001828054610106906105a0565b80156101535780601f1061012857610100808354040283529160200191610153565b820191906000526020600020905b81548152906001019060200180831161013657829003601f168201915b5050505050908060020154905083565b60008151116101b85760405162461bcd60e51b815260206004820152601760248201527f4d6573736167652063616e6e6f7420626520656d707479000000000000000000604482015260640160405180910390fd5b604080516060810182523381526020810183815242928201929092526000805460018101825590805281517f290decd9548b62a8d60345a988386fc84ba6bc95484008f6362f93160ef3e563600390920291820180546001600160a01b0319166001600160a01b0390921691909117815592519192839290917f290decd9548b62a8d60345a988386fc84ba6bc95484008f6362f93160ef3e564019061025e9082610629565b506040918201516002909101555133907f4bba44446aea2a9f27db36c95346239fd392bf3a497349684a3890d0d764077d9061029d90859042906106e9565b60405180910390a25050565b60606000805480602002602001604051908101604052809291908181526020016000905b828210156103b157600084815260209081902060408051606081019091526003850290910180546001600160a01b031682526001810180549293919291840191610316906105a0565b80601f0160208091040260200160405190810160405280929190818152602001828054610342906105a0565b801561038f5780601f106103645761010080835404028352916020019161038f565b820191906000526020600020905b81548152906001019060200180831161037257829003601f168201915b50505050508152602001600282015481525050815260200190600101906102cd565b50505050905090565b6000602082840312156103cc57600080fd5b5035919050565b6000815180845260005b818110156103f9576020818501810151868301820152016103dd565b506000602082860101526020601f19601f83011685010191505092915050565b6001600160a01b038416815260606020820181905260009061043d908301856103d3565b9050826040830152949350505050565b634e487b7160e01b600052604160045260246000fd5b60006020828403121561047557600080fd5b813567ffffffffffffffff8082111561048d57600080fd5b818401915084601f8301126104a157600080fd5b8135818111156104b3576104b361044d565b604051601f8201601f19908116603f011681019083821181831017156104db576104db61044d565b816040528281528760208487010111156104f457600080fd5b826020860160208301376000928101602001929092525095945050505050565b60006020808301818452808551808352604092508286019150828160051b87010184880160005b8381101561059257888303603f19018552815180516001600160a01b0316845287810151606089860181905290610574828701826103d3565b9289015195890195909552509487019492509086019060010161053b565b509098975050505050505050565b600181811c908216806105b457607f821691505b6020821081036105d457634e487b7160e01b600052602260045260246000fd5b50919050565b601f82111561062457600081815260208120601f850160051c810160208610156106015750805b601f850160051c820191505b818110156106205782815560010161060d565b5050505b505050565b815167ffffffffffffffff8111156106435761064361044d565b6106578161065184546105a0565b846105da565b602080601f83116001811461068c57600084156106745750858301515b600019600386901b1c1916600185901b178555610620565b600085815260208120601f198616915b828110156106bb5788860151825594840194600190910190840161069c565b50858210156106d95787850151600019600388901b60f8161c191681555b5050505050600190811b01905550565b6040815260006106fc60408301856103d3565b9050826020830152939250505056fea26469706673582212202dff982d1e0d7d2b6cd43d10152188f235a62a4b7ce7cad99b9e6166d2c4f3b764736f6c63430008110033",
    "linkReferences": {}
  },
  "methodIdentifiers": {
    "getMessages()": "5ff6cbf3",
    "messages(uint256)": "0d80fefd",
    "sendMessage(string)": "469c8110"
  },
  "id": 25
}