{
  "abi": [
    {
      "type": "function",
      "name": "createPost",
      "inputs": [
        {
          "name": "_message",
          "type": "string",
          "internalType": "string"
        }
      ],
      "outputs": [],
      "stateMutability": "nonpayable"
    },
    {
      "type": "function",
      "name": "getPosts",
      "inputs": [],
      "outputs": [
        {
          "name": "",
          "type": "tuple[]",
          "internalType": "struct PostWall.Post[]",
          "components": [
            {
              "name": "author",
              "type": "address",
              "internalType": "address"
            },
            {
              "name": "message",
              "type": "string",
              "internalType": "string"
            },
            {
              "name": "timestamp",
              "type": "uint256",
              "internalType": "uint256"
            }
          ]
        }
      ],
      "stateMutability": "view"
    },
    {
      "type": "function",
      "name": "posts",
      "inputs": [
        {
          "name": "",
          "type": "uint256",
          "internalType": "uint256"
        }
      ],
      "outputs": [
        {
          "name": "author",
          "type": "address",
          "internalType": "address"
        },
        {
          "name": "message",
          "type": "string",
          "internalType": "string"
        },
        {
          "name": "timestamp",
          "type": "uint256",
          "internalType": "uint256"
        }
      ],
      "stateMutability": "view"
    },
    {
      "type": "event",
      "name": "PostCreated",
      "inputs": [
        {
          "name": "author",
          "type": "address",
          "indexed": true,
          "internalType": "address"
        },
        {
          "name": "message",
          "type": "string",
          "indexed": false,
          "internalType": "string"
        },
        {
          "name": "timestamp",
          "type": "uint256",
          "indexed": false,
          "internalType": "uint256"
        }
      ],
      "anonymous": false
    }
  ],
  "bytecode": {
    "object": "0x608060405234801561001057600080fd5b5061073f806100206000396000f3fe608060405234801561001057600080fd5b50600436106100415760003560e01c80630b1e7f831461004657806341f3004a14610071578063c7303c6114610086575b600080fd5b6100596100543660046103b8565b61009b565b60405161006893929190610417565b60405180910390f35b610079610163565b604051610068919061044b565b6100996100943660046104ed565b610274565b005b600081815481106100ab57600080fd5b6000918252602090912060039091020180546001820180546001600160a01b039092169350906100da9061059e565b80601f01602080910402602001604051908101604052809291908181526020018280546101069061059e565b80156101535780601f1061012857610100808354040283529160200191610153565b820191906000526020600020905b81548152906001019060200180831161013657829003601f168201915b5050505050908060020154905083565b60606000805480602002602001604051908101604052809291908181526020016000905b8282101561026b57600084815260209081902060408051606081019091526003850290910180546001600160a01b0316825260018101805492939192918401916101d09061059e565b80601f01602080910402602001604051908101604052809291908181526020018280546101fc9061059e565b80156102495780601f1061021e57610100808354040283529160200191610249565b820191906000526020600020905b81548152906001019060200180831161022c57829003601f168201915b5050505050815260200160028201548152505081526020019060010190610187565b50505050905090565b60008151116102c95760405162461bcd60e51b815260206004820152601760248201527f4d6573736167652063616e6e6f7420626520656d707479000000000000000000604482015260640160405180910390fd5b604080516060810182523381526020810183815242928201929092526000805460018101825590805281517f290decd9548b62a8d60345a988386fc84ba6bc95484008f6362f93160ef3e563600390920291820180546001600160a01b0319166001600160a01b0390921691909117815592519192917f290decd9548b62a8d60345a988386fc84ba6bc95484008f6362f93160ef3e5649091019061036e9082610627565b506040918201516002909101555133907fb5a2d6ecdc9bd09637c1de2e8e02011abe041770e16737ec2adfa54c8e0581c7906103ad90849042906106e7565b60405180910390a250565b6000602082840312156103ca57600080fd5b5035919050565b6000815180845260005b818110156103f7576020818501810151868301820152016103db565b506000602082860101526020601f19601f83011685010191505092915050565b6001600160a01b038416815260606020820181905260009061043b908301856103d1565b9050826040830152949350505050565b60006020808301818452808551808352604092508286019150828160051b87010184880160005b838110156104c957888303603f19018552815180516001600160a01b03168452878101516060898601819052906104ab828701826103d1565b92890151958901959095525094870194925090860190600101610472565b509098975050505050505050565b634e487b7160e01b600052604160045260246000fd5b6000602082840312156104ff57600080fd5b813567ffffffffffffffff8082111561051757600080fd5b818401915084601f83011261052b57600080fd5b81358181111561053d5761053d6104d7565b604051601f8201601f19908116603f01168101908382118183101715610565576105656104d7565b8160405282815287602084870101111561057e57600080fd5b826020860160208301376000928101602001929092525095945050505050565b600181811c908216806105b257607f821691505b6020821081036105d257634e487b7160e01b600052602260045260246000fd5b50919050565b601f82111561062257600081815260208120601f850160051c810160208610156105ff5750805b601f850160051c820191505b8181101561061e5782815560010161060b565b5050505b505050565b815167ffffffffffffffff811115610641576106416104d7565b6106558161064f845461059e565b846105d8565b602080601f83116001811461068a57600084156106725750858301515b600019600386901b1c1916600185901b17855561061e565b600085815260208120601f198616915b828110156106b95788860151825594840194600190910190840161069a565b50858210156106d75787850151600019600388901b60f8161c191681555b5050505050600190811b01905550565b6040815260006106fa60408301856103d1565b9050826020830152939250505056fea26469706673582212205fc006773a599187de6c89ab54f85fe16065a558bf26076caca351a4eb938d0564736f6c63430008130033",
    "linkReferences": {}
  },
  "methodIdentifiers": {
    "createPost(string)": "c7303c61",
    "getPosts()": "41f3004a",
    "posts(uint256)": "0b1e7f83"
  },
  "id": 0
}